:020000040000FA
:10000000700400206D020000710200007302000005
:100010007502000077020000790200000000000075
:100020000000000000000000000000007B02000053
:100030007D020000000000007F020000810200003D
:10004000830200008302000083020000830200009C
:10005000830200008302000083020000830200008C
:10006000830200008302000083020000830200007C
:10007000830200008302000083020000830200006C
:10008000830200008302000083020000830200005C
:10009000830200008302000083020000830200004C
:1000A000830200008302000083020000830200003C
:1000B0008302000083020000990500008302000013
:1000C000830200008302000083020000830200001C
:1000D000830200008302000083020000830200000C
:1000E00083020000830200008302000083020000FC
:1000F00083020000830200008302000083020000EC
:1001000083020000830200008302000083020000DB
:1001100083020000830200008302000083020000CB
:1001200083020000830200008302000083020000BB
:1001300083020000830200008302000083020000AB
:1001400000000000000000000000000000000000AF
:10015000830200008302000083020000830200008B
:10016000000000000000000000000000000000008F
:10017000000000000000000000000000000000007F
:10018000000000000000000000000000000000006F
:10019000000000000000000000000000000000005F
:1001A000000000000000000000000000000000004F
:1001B000830200008302000083020000830200002B
:1001C000830200008302000083020000830200001B
:1001D000830200008302000083020000830200000B
:1001E00083020000830200008302000083020000FB
:1001F00083020000830200008302000083020000EB
:10020000830200008302000083020000000000005F
:1002100083020000830200008302000083020000CA
:1002200083020000830200008302000083020000BA
:1002300083020000830200008302000083020000AA
:10024000830200008302000083020000830200009A
:10025000830200008302000083020000830200008A
:1002600083020000830200008302000000F00AB84D
:10027000FEE7FEE7FEE7FEE7FEE7FEE7FEE7FEE756
:10028000FEE7FEE700F002F800F042F814A696E858
:10029000000CB244B344DA4501D100F039F8BAE8B1
:1002A0000F000FA696E83000A5EB040504EB060747
:1002B000AAEB0704A7F101074FEA15154FEA34141A
:1002C000A4F10104AC4201D300F022F813F0010FB5
:1002D00018BFFB1A43F0010300F001F8DBE71847F1
:1002E0005409000064090000704700000023002446
:1002F00000250026103A28BF78C1FBD8520728BF36
:1003000030C148BF0B6070471FB51FBD10B510BD91
:1003100000F029F81146FFF7F7FF00F05DFB00F051
:1003200047F803B4FFF7F2FF03BC00F04FF80000FA
:1003300072B6704762B67047EFF3108072B67047BE
:1003400080F31088704730BF704702480249014A65
:10035000024B7047700000207004002070000020E5
:10036000704770477047754600F02CF8AE460500A0
:100370006946534620F00700854618B020B5FFF7C0
:10038000E4FFBDE820404FF000064FF000074FF0BB
:1003900000084FF0000BAC46ACE8C009ACE8C0095F
:1003A000ACE8C009ACE8C00921F007018D467047F0
:1003B00010B50446AFF300802046BDE81040FFF7BB
:1003C000B0BF00000048704700000020014918201D
:1003D000ABBEFEE7260002007047000083B002902B
:1003E0000191009249F22801C4F203010220086041
:1003F000FFE749F20400C4F2030000688007002808
:1004000001D4FFE7F5E749F26800C4F20300016890
:100410006FF31F31029A118001686FF31F31019A47
:10042000118000686FF31F300099088049F20C01B9
:10043000C4F203010220086003B070474EF2386135
:10044000C4F20F01086840F002000860FFE74EF2B6
:100450003860C4F20F00006800F00200022801D0EA
:10046000FFE7F4E74EF20861C4F20F01086840F0BC
:1004700010000860FFE74EF20860C4F20F00006849
:1004800000F01000102801D0FFE7F4E744F200412B
:10049000C4F20201086820F00700086044F21C5111
:1004A000C4F20201086820F00700086044F22851F5
:1004B000C4F20201086840F00700086044F22041DD
:1004C000C4F20201086840F00700086049F2000128
:1004D000C4F20301086820F00200086049F6C47203
:1004E000C4F20302106820F00F001060106840F0A2
:1004F0000100106049F26002C4F20302106840F289
:10050000231363F30B00106049F26402C4F2030288
:100510004FF4C060106049F22002C4F2030243F2BB
:100520000120106049F21402C4F20302106820F0A6
:10053000F000106049F20802C4F20302106820F0D3
:1005400002001060086840F0020008607047000078
:1005500082B0019000910198013848F29801C4F2EC
:10056000020108600098013848F29C01C4F20201BF
:10057000086002B07047000080B545F2FC31C4F25B
:100580000001086840F0880008604FF49651084662
:10059000FFF7DEFF80BD000045F21440C4F2020008
:1005A0000068C00600280DD5FFE745F21C41C4F2E3
:1005B00002011020086040F26C01C2F2000101202B
:1005C0000870FFE745F21440C4F202000068C0075B
:1005D00068B1FFE745F21C41C4F202010120086046
:1005E00040F26C01C2F2000102200870FFE7704780
:1005F00080B545F2FC31C4F20001086840F0880083
:1006000008604FF496504FF44861FFF7A1FF80BD9A
:1006100080B545F2FC31C4F20001086840F0880062
:1006200008604FF448604FF49651FFF791FF80BD8A
:1006300081B04EF27001C4F20F010091086840F0E1
:1006400000400860086840F4006008604EF26002F4
:10065000C4F20F02106820F4F8601060106800F512
:10066000A8601060086820F07000086008680860E2
:10067000086820F400500860086840F08040086076
:100680000868182262F39C500860FFE74EF25000A1
:10069000C4F20F0000684006002801D4FFE7F5E728
:1006A0004EF27001C4F20F01086820F40060086087
:1006B00001B070474EF24061C4F20F01086840F08B
:1006C000010008604EF20861C4F20F01086840F0B2
:1006D00002000860FFE74EF20860C4F20F000068F5
:1006E00000F00200022801D0FFE7F4E745F2004CD9
:1006F000C4F2000CDCF8000040F08800CCF80000E8
:1007000045F21C53C4F20003186840F088001860DA
:1007100045F22852C4F20002106820F088001060F0
:1007200045F22041C4F20001086820F0880008600A
:10073000DCF8000040F03000CCF80000186840F011
:1007400030001860106820F030001060086840F039
:100750003000086045F22C51C4F2000108684422C0
:1007600062F31740086048F28001C4F202010020E1
:10077000086048F2A003C4F20203C8221A6048F2DB
:10078000A403C4F2020340F608421A6048F2900340
:10079000C4F2020343F67F621A6048F29802C4F280
:1007A0000202106048F29C02C4F202021060086863
:1007B00040F00100086048F20801C4F20201086834
:1007C00040F00C00086070474EF20861C4F20F015F
:1007D000086840F020000860FFE74EF20860C4F2AD
:1007E0000F00006800F02000202801D0FFE7F4E7A8
:1007F00045F22051C4F2020144F24B30C4F64F409E
:10080000086045F22451C4F20201086840F01F005C
:10081000086045F2004CC4F2020CDCF8000040F025
:100820000E00CCF8000045F21C53C4F20203186815
:1008300040F00E00186045F22852C4F2020210681F
:1008400020F00E00106045F22041C4F20201086859
:1008500020F00E000860DCF8000020F01100CCF859
:100860000000186840F011001860106820F01100B6
:100870001060086820F01100086045F21051C4F2C1
:100880000201086840F01100086045F20441C4F21A
:100890000201086820F01100086045F20841C4F226
:1008A0000201086820F01100086045F20C41C4F212
:1008B0000201086820F01100086045F21C41C4F2F2
:1008C00002011120086045F21041C4F202010868DB
:1008D00040F0110008604EF21C41CEF200010868A1
:1008E000202262F3174008604EF20011CEF20001A0
:1008F000086840F0804008607047000080B58CB008
:100900000B900A9109920DF1220008A90DF11E0227
:10091000FFF764FDBDF8220040F26401C2F200015D
:100920000291098840F26A02C2F200020192128822
:1009300000F072F8019A02990B9B188008881080C9
:10094000BDF822000880BDF8200040F26201C2F22A
:1009500000010491098840F26802C2F20002039289
:10096000128800F059F8039A04990A9B18800888A5
:100970001080BDF820000880BDF81E0040F2600124
:10098000C2F200010691098840F26602C2F200023A
:100990000592128800F040F8059A0699099B188084
:1009A00008881080BDF81E0008800CB080BD0000D3
:1009B00080B500210846FFF7CBFD80BD80B5FFF76D
:1009C000B7FCFFF735FEFFF739FDFFF773FEFFF7C2
:1009D000FBFEFFF7AFFC80BD80B582B00020019028
:1009E000FFF7ECFFFFE740F26C00C2F20000007876
:1009F00001460091012804D0FFE70098022803D0A7
:100A000005E000F059F805E000F012F902E0FFF708
:100A10009AFCFFE7E7E7000082B0ADF80600ADF80A
:100A20000410ADF80220BDF80600BDF8041088429D
:100A30001FDDFFE7BDF80400BDF80210884205DDA8
:100A4000FFE7BDF80400ADF8000011E0BDF80600B6
:100A5000BDF80210884205DDFFE7BDF80200ADF8E1
:100A6000000004E0BDF80600ADF80000FFE7FFE776
:100A70001EE0BDF80200BDF80410884205DDFFE766
:100A8000BDF80400ADF8000011E0BDF80600BDF8A7
:100A90000210884205DDFFE7BDF80600ADF8000052
:100AA00004E0BDF80200ADF80000FFE7FFE7FFE754
:100AB000BDF8000002B0704780B586B000208DF808
:100AC0001100FFE79DF8110013280EDCFFE70DF180
:100AD00016000DF1120105AAFFF710FFFFE79DF8C0
:100AE000110001308DF81100ECE7FFE70DF1160061
:100AF0000DF1120105AAFFF701FFFFE7BDF816107F
:100B0000012040F64552914201900ADCFFE7BDF812
:100B1000161040F2B46200209142B8BF012001904B
:100B2000FFE70198C0070028E0D1FFE740F26C0121
:100B3000C2F2000101200870FFE740F26C00C2F22F
:100B400000000078012871D1FFE70DF116000DF1CA
:100B5000120105AAFFF7D2FEBDF81600ADF80E008F
:100B6000BDF81400ADF80C00BDF81200ADF80A0095
:100B7000BDF80E00B0F57A7F0FDAFFE7BDF80C0084
:100B8000B0F57A7F09DAFFE7BDF80A00B0F57A7FA1
:100B900003DAFFE7FFF70CFFCFE7BDF80E0040F6E2
:100BA0004651884209DBFFE7FFF702FF40F26C0184
:100BB000C2F200010020087038E0BDF80E0040F2DB
:100BC000B561884203DBFFE7FFF7F2FE0AE0BDF8FC
:100BD0000E0040F2B361884203DCFFE7FFF7CCFC74
:100BE000FFE7FFE7FFE7BDF80C0040F20B6188422A
:100BF0000ADBFFE7BDF80A0040F22E61884203DC01
:100C0000FFE7FFF7F5FC10E0BDF80A00B0F5C66F8E
:100C10000ADBFFE7BDF80C0040F20961884203DC03
:100C2000FFE7FFF7F5FCFFE7FFE786E706B080BDCB
:100C300070470000440C0000000000207004000019
:040C4000EC020000C2
:040000050000026D88
:00000001FF
